{
  "_format": "hh-sol-artifact-1",
  "contractName": "CocoaNFT",
  "sourceName": "contracts/CocoaNFT.sol",
  "abi": [
    {
      "inputs": [],
      "stateMutability": "nonpayable",
      "type": "constructor"
    },
    {
      "anonymous": false,
      "inputs": [
        {
          "indexed": true,
          "internalType": "address",
          "name": "owner",
          "type": "address"
        },
        {
          "indexed": true,
          "internalType": "address",
          "name": "approved",
          "type": "address"
        },
        {
          "indexed": true,
          "internalType": "uint256",
          "name": "tokenId",
          "type": "uint256"
        }
      ],
      "name": "Approval",
      "type": "event"
    },
    {
      "anonymous": false,
      "inputs": [
        {
          "indexed": true,
          "internalType": "address",
          "name": "owner",
          "type": "address"
        },
        {
          "indexed": true,
          "internalType": "address",
          "name": "operator",
          "type": "address"
        },
        {
          "indexed": false,
          "internalType": "bool",
          "name": "approved",
          "type": "bool"
        }
      ],
      "name": "ApprovalForAll",
      "type": "event"
    },
    {
      "anonymous": false,
      "inputs": [
        {
          "indexed": true,
          "internalType": "address",
          "name": "previousOwner",
          "type": "address"
        },
        {
          "indexed": true,
          "internalType": "address",
          "name": "newOwner",
          "type": "address"
        }
      ],
      "name": "OwnershipTransferred",
      "type": "event"
    },
    {
      "anonymous": false,
      "inputs": [
        {
          "indexed": true,
          "internalType": "address",
          "name": "from",
          "type": "address"
        },
        {
          "indexed": true,
          "internalType": "address",
          "name": "to",
          "type": "address"
        },
        {
          "indexed": true,
          "internalType": "uint256",
          "name": "tokenId",
          "type": "uint256"
        }
      ],
      "name": "Transfer",
      "type": "event"
    },
    {
      "inputs": [
        {
          "internalType": "address",
          "name": "to",
          "type": "address"
        },
        {
          "internalType": "uint256",
          "name": "tokenId",
          "type": "uint256"
        }
      ],
      "name": "approve",
      "outputs": [],
      "stateMutability": "nonpayable",
      "type": "function"
    },
    {
      "inputs": [
        {
          "internalType": "address",
          "name": "owner",
          "type": "address"
        }
      ],
      "name": "balanceOf",
      "outputs": [
        {
          "internalType": "uint256",
          "name": "",
          "type": "uint256"
        }
      ],
      "stateMutability": "view",
      "type": "function"
    },
    {
      "inputs": [],
      "name": "cost",
      "outputs": [
        {
          "internalType": "uint256",
          "name": "",
          "type": "uint256"
        }
      ],
      "stateMutability": "view",
      "type": "function"
    },
    {
      "inputs": [
        {
          "internalType": "uint256",
          "name": "tokenId",
          "type": "uint256"
        }
      ],
      "name": "getApproved",
      "outputs": [
        {
          "internalType": "address",
          "name": "",
          "type": "address"
        }
      ],
      "stateMutability": "view",
      "type": "function"
    },
    {
      "inputs": [],
      "name": "hiddenMetadataUri",
      "outputs": [
        {
          "internalType": "string",
          "name": "",
          "type": "string"
        }
      ],
      "stateMutability": "view",
      "type": "function"
    },
    {
      "inputs": [
        {
          "internalType": "address",
          "name": "owner",
          "type": "address"
        },
        {
          "internalType": "address",
          "name": "operator",
          "type": "address"
        }
      ],
      "name": "isApprovedForAll",
      "outputs": [
        {
          "internalType": "bool",
          "name": "",
          "type": "bool"
        }
      ],
      "stateMutability": "view",
      "type": "function"
    },
    {
      "inputs": [],
      "name": "maxMintAmountPerTx",
      "outputs": [
        {
          "internalType": "uint256",
          "name": "",
          "type": "uint256"
        }
      ],
      "stateMutability": "view",
      "type": "function"
    },
    {
      "inputs": [],
      "name": "maxSupply",
      "outputs": [
        {
          "internalType": "uint256",
          "name": "",
          "type": "uint256"
        }
      ],
      "stateMutability": "view",
      "type": "function"
    },
    {
      "inputs": [
        {
          "internalType": "uint256",
          "name": "_mintAmount",
          "type": "uint256"
        }
      ],
      "name": "mint",
      "outputs": [],
      "stateMutability": "payable",
      "type": "function"
    },
    {
      "inputs": [
        {
          "internalType": "uint256",
          "name": "_mintAmount",
          "type": "uint256"
        },
        {
          "internalType": "address",
          "name": "_receiver",
          "type": "address"
        }
      ],
      "name": "mintForAddress",
      "outputs": [],
      "stateMutability": "nonpayable",
      "type": "function"
    },
    {
      "inputs": [],
      "name": "name",
      "outputs": [
        {
          "internalType": "string",
          "name": "",
          "type": "string"
        }
      ],
      "stateMutability": "view",
      "type": "function"
    },
    {
      "inputs": [],
      "name": "owner",
      "outputs": [
        {
          "internalType": "address",
          "name": "",
          "type": "address"
        }
      ],
      "stateMutability": "view",
      "type": "function"
    },
    {
      "inputs": [
        {
          "internalType": "uint256",
          "name": "tokenId",
          "type": "uint256"
        }
      ],
      "name": "ownerOf",
      "outputs": [
        {
          "internalType": "address",
          "name": "",
          "type": "address"
        }
      ],
      "stateMutability": "view",
      "type": "function"
    },
    {
      "inputs": [],
      "name": "paused",
      "outputs": [
        {
          "internalType": "bool",
          "name": "",
          "type": "bool"
        }
      ],
      "stateMutability": "view",
      "type": "function"
    },
    {
      "inputs": [],
      "name": "renounceOwnership",
      "outputs": [],
      "stateMutability": "nonpayable",
      "type": "function"
    },
    {
      "inputs": [],
      "name": "revealed",
      "outputs": [
        {
          "internalType": "bool",
          "name": "",
          "type": "bool"
        }
      ],
      "stateMutability": "view",
      "type": "function"
    },
    {
      "inputs": [
        {
          "internalType": "address",
          "name": "from",
          "type": "address"
        },
        {
          "internalType": "address",
          "name": "to",
          "type": "address"
        },
        {
          "internalType": "uint256",
          "name": "tokenId",
          "type": "uint256"
        }
      ],
      "name": "safeTransferFrom",
      "outputs": [],
      "stateMutability": "nonpayable",
      "type": "function"
    },
    {
      "inputs": [
        {
          "internalType": "address",
          "name": "from",
          "type": "address"
        },
        {
          "internalType": "address",
          "name": "to",
          "type": "address"
        },
        {
          "internalType": "uint256",
          "name": "tokenId",
          "type": "uint256"
        },
        {
          "internalType": "bytes",
          "name": "_data",
          "type": "bytes"
        }
      ],
      "name": "safeTransferFrom",
      "outputs": [],
      "stateMutability": "nonpayable",
      "type": "function"
    },
    {
      "inputs": [
        {
          "internalType": "address",
          "name": "operator",
          "type": "address"
        },
        {
          "internalType": "bool",
          "name": "approved",
          "type": "bool"
        }
      ],
      "name": "setApprovalForAll",
      "outputs": [],
      "stateMutability": "nonpayable",
      "type": "function"
    },
    {
      "inputs": [
        {
          "internalType": "uint256",
          "name": "_cost",
          "type": "uint256"
        }
      ],
      "name": "setCost",
      "outputs": [],
      "stateMutability": "nonpayable",
      "type": "function"
    },
    {
      "inputs": [
        {
          "internalType": "string",
          "name": "_hiddenMetadataUri",
          "type": "string"
        }
      ],
      "name": "setHiddenMetadataUri",
      "outputs": [],
      "stateMutability": "nonpayable",
      "type": "function"
    },
    {
      "inputs": [
        {
          "internalType": "uint256",
          "name": "_maxMintAmountPerTx",
          "type": "uint256"
        }
      ],
      "name": "setMaxMintAmountPerTx",
      "outputs": [],
      "stateMutability": "nonpayable",
      "type": "function"
    },
    {
      "inputs": [
        {
          "internalType": "bool",
          "name": "_state",
          "type": "bool"
        }
      ],
      "name": "setPaused",
      "outputs": [],
      "stateMutability": "nonpayable",
      "type": "function"
    },
    {
      "inputs": [
        {
          "internalType": "bool",
          "name": "_state",
          "type": "bool"
        }
      ],
      "name": "setRevealed",
      "outputs": [],
      "stateMutability": "nonpayable",
      "type": "function"
    },
    {
      "inputs": [
        {
          "internalType": "string",
          "name": "_uriPrefix",
          "type": "string"
        }
      ],
      "name": "setUriPrefix",
      "outputs": [],
      "stateMutability": "nonpayable",
      "type": "function"
    },
    {
      "inputs": [
        {
          "internalType": "string",
          "name": "_uriSuffix",
          "type": "string"
        }
      ],
      "name": "setUriSuffix",
      "outputs": [],
      "stateMutability": "nonpayable",
      "type": "function"
    },
    {
      "inputs": [
        {
          "internalType": "bytes4",
          "name": "interfaceId",
          "type": "bytes4"
        }
      ],
      "name": "supportsInterface",
      "outputs": [
        {
          "internalType": "bool",
          "name": "",
          "type": "bool"
        }
      ],
      "stateMutability": "view",
      "type": "function"
    },
    {
      "inputs": [],
      "name": "symbol",
      "outputs": [
        {
          "internalType": "string",
          "name": "",
          "type": "string"
        }
      ],
      "stateMutability": "view",
      "type": "function"
    },
    {
      "inputs": [
        {
          "internalType": "uint256",
          "name": "_tokenId",
          "type": "uint256"
        }
      ],
      "name": "tokenURI",
      "outputs": [
        {
          "internalType": "string",
          "name": "",
          "type": "string"
        }
      ],
      "stateMutability": "view",
      "type": "function"
    },
    {
      "inputs": [],
      "name": "totalSupply",
      "outputs": [
        {
          "internalType": "uint256",
          "name": "",
          "type": "uint256"
        }
      ],
      "stateMutability": "view",
      "type": "function"
    },
    {
      "inputs": [
        {
          "internalType": "address",
          "name": "from",
          "type": "address"
        },
        {
          "internalType": "address",
          "name": "to",
          "type": "address"
        },
        {
          "internalType": "uint256",
          "name": "tokenId",
          "type": "uint256"
        }
      ],
      "name": "transferFrom",
      "outputs": [],
      "stateMutability": "nonpayable",
      "type": "function"
    },
    {
      "inputs": [
        {
          "internalType": "address",
          "name": "newOwner",
          "type": "address"
        }
      ],
      "name": "transferOwnership",
      "outputs": [],
      "stateMutability": "nonpayable",
      "type": "function"
    },
    {
      "inputs": [],
      "name": "uriPrefix",
      "outputs": [
        {
          "internalType": "string",
          "name": "",
          "type": "string"
        }
      ],
      "stateMutability": "view",
      "type": "function"
    },
    {
      "inputs": [],
      "name": "uriSuffix",
      "outputs": [
        {
          "internalType": "string",
          "name": "",
          "type": "string"
        }
      ],
      "stateMutability": "view",
      "type": "function"
    },
    {
      "inputs": [
        {
          "internalType": "address",
          "name": "_owner",
          "type": "address"
        }
      ],
      "name": "walletOfOwner",
      "outputs": [
        {
          "internalType": "uint256[]",
          "name": "",
          "type": "uint256[]"
        }
      ],
      "stateMutability": "view",
      "type": "function"
    },
    {
      "inputs": [],
      "name": "withdraw",
      "outputs": [],
      "stateMutability": "nonpayable",
      "type": "function"
    }
  ],
  "bytecode": "0x608060405260405180602001604052806000815250600890805190602001906200002b92919062000367565b506040518060400160405280600581526020017f2e6a736f6e000000000000000000000000000000000000000000000000000000815250600990805190602001906200007992919062000367565b50662386f26fc10000600b5561012c600c556005600d556000600e60006101000a81548160ff0219169083151502179055506000600e60016101000a81548160ff021916908315150217905550348015620000d357600080fd5b506040518060400160405280600581526020017f436f636f610000000000000000000000000000000000000000000000000000008152506040518060400160405280600581526020017f434f434f4100000000000000000000000000000000000000000000000000000081525081600090805190602001906200015892919062000367565b5080600190805190602001906200017192919062000367565b5050506200019462000188620001c460201b60201c565b620001cc60201b60201c565b620001be604051806060016040528060358152602001620047ba603591396200029260201b60201c565b620004ff565b600033905090565b6000600660009054906101000a900473ffffffffffffffffffffffffffffffffffffffff16905081600660006101000a81548173ffffffffffffffffffffffffffffffffffffffff021916908373ffffffffffffffffffffffffffffffffffffffff1602179055508173ffffffffffffffffffffffffffffffffffffffff168173ffffffffffffffffffffffffffffffffffffffff167f8be0079c531659141344cd1fd0a4f28419497f9722a3daafe3b4186f6b6457e060405160405180910390a35050565b620002a2620001c460201b60201c565b73ffffffffffffffffffffffffffffffffffffffff16620002c86200033d60201b60201c565b73ffffffffffffffffffffffffffffffffffffffff161462000321576040517f08c379a000000000000000000000000000000000000000000000000000000000815260040162000318906200043e565b60405180910390fd5b80600a90805190602001906200033992919062000367565b5050565b6000600660009054906101000a900473ffffffffffffffffffffffffffffffffffffffff16905090565b828054620003759062000471565b90600052602060002090601f016020900481019282620003995760008555620003e5565b82601f10620003b457805160ff1916838001178555620003e5565b82800160010185558215620003e5579182015b82811115620003e4578251825591602001919060010190620003c7565b5b509050620003f49190620003f8565b5090565b5b8082111562000413576000816000905550600101620003f9565b5090565b60006200042660208362000460565b91506200043382620004d6565b602082019050919050565b60006020820190508181036000830152620004598162000417565b9050919050565b600082825260208201905092915050565b600060028204905060018216806200048a57607f821691505b60208210811415620004a157620004a0620004a7565b5b50919050565b7f4e487b7100000000000000000000000000000000000000000000000000000000600052602260045260246000fd5b7f4f776e61626c653a2063616c6c6572206973206e6f7420746865206f776e6572600082015250565b6142ab806200050f6000396000f3fe60806040526004361061020f5760003560e01c80636352211e11610118578063a45ba8e7116100a0578063d5abeb011161006f578063d5abeb0114610768578063e0a8085314610793578063e985e9c5146107bc578063efbd73f4146107f9578063f2fde38b146108225761020f565b8063a45ba8e7146106ae578063b071401b146106d9578063b88d4fde14610702578063c87b56dd1461072b5761020f565b80638da5cb5b116100e75780638da5cb5b146105e857806394354fd01461061357806395d89b411461063e578063a0712d6814610669578063a22cb465146106855761020f565b80636352211e1461052e57806370a082311461056b578063715018a6146105a85780637ec4a659146105bf5761020f565b80633ccfd60b1161019b5780634fdd43cb1161016a5780634fdd43cb1461045957806351830227146104825780635503a0e8146104ad5780635c975abb146104d857806362b99ad4146105035761020f565b80633ccfd60b146103b357806342842e0e146103ca578063438b6300146103f357806344a0d68a146104305761020f565b806313faede6116101e257806313faede6146102e257806316ba10e01461030d57806316c38b3c1461033657806318160ddd1461035f57806323b872dd1461038a5761020f565b806301ffc9a71461021457806306fdde0314610251578063081812fc1461027c578063095ea7b3146102b9575b600080fd5b34801561022057600080fd5b5061023b60048036038101906102369190612f30565b61084b565b60405161024891906135aa565b60405180910390f35b34801561025d57600080fd5b5061026661092d565b60405161027391906135c5565b60405180910390f35b34801561028857600080fd5b506102a3600480360381019061029e9190612fc3565b6109bf565b6040516102b09190613521565b60405180910390f35b3480156102c557600080fd5b506102e060048036038101906102db9190612ecb565b610a44565b005b3480156102ee57600080fd5b506102f7610b5c565b6040516103049190613867565b60405180910390f35b34801561031957600080fd5b50610334600480360381019061032f9190612f82565b610b62565b005b34801561034257600080fd5b5061035d60048036038101906103589190612f07565b610bf8565b005b34801561036b57600080fd5b50610374610c91565b6040516103819190613867565b60405180910390f35b34801561039657600080fd5b506103b160048036038101906103ac9190612dc5565b610ca2565b005b3480156103bf57600080fd5b506103c8610d02565b005b3480156103d657600080fd5b506103f160048036038101906103ec9190612dc5565b610ea1565b005b3480156103ff57600080fd5b5061041a60048036038101906104159190612d60565b610ec1565b6040516104279190613588565b60405180910390f35b34801561043c57600080fd5b5061045760048036038101906104529190612fc3565b611018565b005b34801561046557600080fd5b50610480600480360381019061047b9190612f82565b61109e565b005b34801561048e57600080fd5b50610497611134565b6040516104a491906135aa565b60405180910390f35b3480156104b957600080fd5b506104c2611147565b6040516104cf91906135c5565b60405180910390f35b3480156104e457600080fd5b506104ed6111d5565b6040516104fa91906135aa565b60405180910390f35b34801561050f57600080fd5b506105186111e8565b60405161052591906135c5565b60405180910390f35b34801561053a57600080fd5b5061055560048036038101906105509190612fc3565b611276565b6040516105629190613521565b60405180910390f35b34801561057757600080fd5b50610592600480360381019061058d9190612d60565b611328565b60405161059f9190613867565b60405180910390f35b3480156105b457600080fd5b506105bd6113e0565b005b3480156105cb57600080fd5b506105e660048036038101906105e19190612f82565b611468565b005b3480156105f457600080fd5b506105fd6114fe565b60405161060a9190613521565b60405180910390f35b34801561061f57600080fd5b50610628611528565b6040516106359190613867565b60405180910390f35b34801561064a57600080fd5b5061065361152e565b60405161066091906135c5565b60405180910390f35b610683600480360381019061067e9190612fc3565b6115c0565b005b34801561069157600080fd5b506106ac60048036038101906106a79190612e8f565b611719565b005b3480156106ba57600080fd5b506106c361172f565b6040516106d091906135c5565b60405180910390f35b3480156106e557600080fd5b5061070060048036038101906106fb9190612fc3565b6117bd565b005b34801561070e57600080fd5b5061072960048036038101906107249190612e14565b611843565b005b34801561073757600080fd5b50610752600480360381019061074d9190612fc3565b6118a5565b60405161075f91906135c5565b60405180910390f35b34801561077457600080fd5b5061077d6119fe565b60405161078a9190613867565b60405180910390f35b34801561079f57600080fd5b506107ba60048036038101906107b59190612f07565b611a04565b005b3480156107c857600080fd5b506107e360048036038101906107de9190612d89565b611a9d565b6040516107f091906135aa565b60405180910390f35b34801561080557600080fd5b50610820600480360381019061081b9190612fec565b611b31565b005b34801561082e57600080fd5b5061084960048036038101906108449190612d60565b611c67565b005b60007f80ac58cd000000000000000000000000000000000000000000000000000000007bffffffffffffffffffffffffffffffffffffffffffffffffffffffff1916827bffffffffffffffffffffffffffffffffffffffffffffffffffffffff1916148061091657507f5b5e139f000000000000000000000000000000000000000000000000000000007bffffffffffffffffffffffffffffffffffffffffffffffffffffffff1916827bffffffffffffffffffffffffffffffffffffffffffffffffffffffff1916145b80610926575061092582611d5f565b5b9050919050565b60606000805461093c90613b70565b80601f016020809104026020016040519081016040528092919081815260200182805461096890613b70565b80156109b55780601f1061098a576101008083540402835291602001916109b5565b820191906000526020600020905b81548152906001019060200180831161099857829003601f168201915b5050505050905090565b60006109ca82611dc9565b610a09576040517f08c379a0000000000000000000000000000000000000000000000000000000008152600401610a0090613767565b60405180910390fd5b6004600083815260200190815260200160002060009054906101000a900473ffffffffffffffffffffffffffffffffffffffff169050919050565b6000610a4f82611276565b90508073ffffffffffffffffffffffffffffffffffffffff168373ffffffffffffffffffffffffffffffffffffffff161415610ac0576040517f08c379a0000000000000000000000000000000000000000000000000000000008152600401610ab7906137e7565b60405180910390fd5b8073ffffffffffffffffffffffffffffffffffffffff16610adf611e35565b73ffffffffffffffffffffffffffffffffffffffff161480610b0e5750610b0d81610b08611e35565b611a9d565b5b610b4d576040517f08c379a0000000000000000000000000000000000000000000000000000000008152600401610b44906136e7565b60405180910390fd5b610b578383611e3d565b505050565b600b5481565b610b6a611e35565b73ffffffffffffffffffffffffffffffffffffffff16610b886114fe565b73ffffffffffffffffffffffffffffffffffffffff1614610bde576040517f08c379a0000000000000000000000000000000000000000000000000000000008152600401610bd590613787565b60405180910390fd5b8060099080519060200190610bf4929190612b84565b5050565b610c00611e35565b73ffffffffffffffffffffffffffffffffffffffff16610c1e6114fe565b73ffffffffffffffffffffffffffffffffffffffff1614610c74576040517f08c379a0000000000000000000000000000000000000000000000000000000008152600401610c6b90613787565b60405180910390fd5b80600e60006101000a81548160ff02191690831515021790555050565b6000610c9d6007611ef6565b905090565b610cb3610cad611e35565b82611f04565b610cf2576040517f08c379a0000000000000000000000000000000000000000000000000000000008152600401610ce990613827565b60405180910390fd5b610cfd838383611fe2565b505050565b610d0a611e35565b73ffffffffffffffffffffffffffffffffffffffff16610d286114fe565b73ffffffffffffffffffffffffffffffffffffffff1614610d7e576040517f08c379a0000000000000000000000000000000000000000000000000000000008152600401610d7590613787565b60405180910390fd5b600073943590a42c27d08e3744202c4ae5ed55c2de240d73ffffffffffffffffffffffffffffffffffffffff166064600547610dba9190613a2c565b610dc491906139fb565b604051610dd09061350c565b60006040518083038185875af1925050503d8060008114610e0d576040519150601f19603f3d011682016040523d82523d6000602084013e610e12565b606091505b5050905080610e2057600080fd5b6000610e2a6114fe565b73ffffffffffffffffffffffffffffffffffffffff1647604051610e4d9061350c565b60006040518083038185875af1925050503d8060008114610e8a576040519150601f19603f3d011682016040523d82523d6000602084013e610e8f565b606091505b5050905080610e9d57600080fd5b5050565b610ebc83838360405180602001604052806000815250611843565b505050565b60606000610ece83611328565b905060008167ffffffffffffffff811115610f12577f4e487b7100000000000000000000000000000000000000000000000000000000600052604160045260246000fd5b604051908082528060200260200182016040528015610f405781602001602082028036833780820191505090505b50905060006001905060005b8381108015610f5d5750600c548211155b1561100c576000610f6d83611276565b90508673ffffffffffffffffffffffffffffffffffffffff168173ffffffffffffffffffffffffffffffffffffffff161415610ff85782848381518110610fdd577f4e487b7100000000000000000000000000000000000000000000000000000000600052603260045260246000fd5b6020026020010181815250508180610ff490613bd3565b9250505b828061100390613bd3565b93505050610f4c565b82945050505050919050565b611020611e35565b73ffffffffffffffffffffffffffffffffffffffff1661103e6114fe565b73ffffffffffffffffffffffffffffffffffffffff1614611094576040517f08c379a000000000000000000000000000000000000000000000000000000000815260040161108b90613787565b60405180910390fd5b80600b8190555050565b6110a6611e35565b73ffffffffffffffffffffffffffffffffffffffff166110c46114fe565b73ffffffffffffffffffffffffffffffffffffffff161461111a576040517f08c379a000000000000000000000000000000000000000000000000000000000815260040161111190613787565b60405180910390fd5b80600a9080519060200190611130929190612b84565b5050565b600e60019054906101000a900460ff1681565b6009805461115490613b70565b80601f016020809104026020016040519081016040528092919081815260200182805461118090613b70565b80156111cd5780601f106111a2576101008083540402835291602001916111cd565b820191906000526020600020905b8154815290600101906020018083116111b057829003601f168201915b505050505081565b600e60009054906101000a900460ff1681565b600880546111f590613b70565b80601f016020809104026020016040519081016040528092919081815260200182805461122190613b70565b801561126e5780601f106112435761010080835404028352916020019161126e565b820191906000526020600020905b81548152906001019060200180831161125157829003601f168201915b505050505081565b6000806002600084815260200190815260200160002060009054906101000a900473ffffffffffffffffffffffffffffffffffffffff169050600073ffffffffffffffffffffffffffffffffffffffff168173ffffffffffffffffffffffffffffffffffffffff16141561131f576040517f08c379a000000000000000000000000000000000000000000000000000000000815260040161131690613727565b60405180910390fd5b80915050919050565b60008073ffffffffffffffffffffffffffffffffffffffff168273ffffffffffffffffffffffffffffffffffffffff161415611399576040517f08c379a000000000000000000000000000000000000000000000000000000000815260040161139090613707565b60405180910390fd5b600360008373ffffffffffffffffffffffffffffffffffffffff1673ffffffffffffffffffffffffffffffffffffffff168152602001908152602001600020549050919050565b6113e8611e35565b73ffffffffffffffffffffffffffffffffffffffff166114066114fe565b73ffffffffffffffffffffffffffffffffffffffff161461145c576040517f08c379a000000000000000000000000000000000000000000000000000000000815260040161145390613787565b60405180910390fd5b6114666000612249565b565b611470611e35565b73ffffffffffffffffffffffffffffffffffffffff1661148e6114fe565b73ffffffffffffffffffffffffffffffffffffffff16146114e4576040517f08c379a00000000000000000000000000000000000000000000000000000000081526004016114db90613787565b60405180910390fd5b80600890805190602001906114fa929190612b84565b5050565b6000600660009054906101000a900473ffffffffffffffffffffffffffffffffffffffff16905090565b600d5481565b60606001805461153d90613b70565b80601f016020809104026020016040519081016040528092919081815260200182805461156990613b70565b80156115b65780601f1061158b576101008083540402835291602001916115b6565b820191906000526020600020905b81548152906001019060200180831161159957829003601f168201915b5050505050905090565b806000811180156115d35750600d548111155b611612576040517f08c379a000000000000000000000000000000000000000000000000000000000815260040161160990613667565b60405180910390fd5b600c54816116206007611ef6565b61162a91906139a5565b111561166b576040517f08c379a000000000000000000000000000000000000000000000000000000000815260040161166290613807565b60405180910390fd5b600e60009054906101000a900460ff16156116bb576040517f08c379a00000000000000000000000000000000000000000000000000000000081526004016116b2906137a7565b60405180910390fd5b81600b546116c99190613a2c565b34101561170b576040517f08c379a000000000000000000000000000000000000000000000000000000000815260040161170290613847565b60405180910390fd5b611715338361230f565b5050565b61172b611724611e35565b838361234f565b5050565b600a805461173c90613b70565b80601f016020809104026020016040519081016040528092919081815260200182805461176890613b70565b80156117b55780601f1061178a576101008083540402835291602001916117b5565b820191906000526020600020905b81548152906001019060200180831161179857829003601f168201915b505050505081565b6117c5611e35565b73ffffffffffffffffffffffffffffffffffffffff166117e36114fe565b73ffffffffffffffffffffffffffffffffffffffff1614611839576040517f08c379a000000000000000000000000000000000000000000000000000000000815260040161183090613787565b60405180910390fd5b80600d8190555050565b61185461184e611e35565b83611f04565b611893576040517f08c379a000000000000000000000000000000000000000000000000000000000815260040161188a90613827565b60405180910390fd5b61189f848484846124bc565b50505050565b60606118b082611dc9565b6118ef576040517f08c379a00000000000000000000000000000000000000000000000000000000081526004016118e6906137c7565b60405180910390fd5b60001515600e60019054906101000a900460ff161515141561199d57600a805461191890613b70565b80601f016020809104026020016040519081016040528092919081815260200182805461194490613b70565b80156119915780601f1061196657610100808354040283529160200191611991565b820191906000526020600020905b81548152906001019060200180831161197457829003601f168201915b505050505090506119f9565b60006119a7612518565b905060008151116119c757604051806020016040528060008152506119f5565b806119d1846125aa565b60096040516020016119e5939291906134db565b6040516020818303038152906040525b9150505b919050565b600c5481565b611a0c611e35565b73ffffffffffffffffffffffffffffffffffffffff16611a2a6114fe565b73ffffffffffffffffffffffffffffffffffffffff1614611a80576040517f08c379a0000000000000000000000000000000000000000000000000000000008152600401611a7790613787565b60405180910390fd5b80600e60016101000a81548160ff02191690831515021790555050565b6000600560008473ffffffffffffffffffffffffffffffffffffffff1673ffffffffffffffffffffffffffffffffffffffff16815260200190815260200160002060008373ffffffffffffffffffffffffffffffffffffffff1673ffffffffffffffffffffffffffffffffffffffff16815260200190815260200160002060009054906101000a900460ff16905092915050565b81600081118015611b445750600d548111155b611b83576040517f08c379a0000000000000000000000000000000000000000000000000000000008152600401611b7a90613667565b60405180910390fd5b600c5481611b916007611ef6565b611b9b91906139a5565b1115611bdc576040517f08c379a0000000000000000000000000000000000000000000000000000000008152600401611bd390613807565b60405180910390fd5b611be4611e35565b73ffffffffffffffffffffffffffffffffffffffff16611c026114fe565b73ffffffffffffffffffffffffffffffffffffffff1614611c58576040517f08c379a0000000000000000000000000000000000000000000000000000000008152600401611c4f90613787565b60405180910390fd5b611c62828461230f565b505050565b611c6f611e35565b73ffffffffffffffffffffffffffffffffffffffff16611c8d6114fe565b73ffffffffffffffffffffffffffffffffffffffff1614611ce3576040517f08c379a0000000000000000000000000000000000000000000000000000000008152600401611cda90613787565b60405180910390fd5b600073ffffffffffffffffffffffffffffffffffffffff168173ffffffffffffffffffffffffffffffffffffffff161415611d53576040517f08c379a0000000000000000000000000000000000000000000000000000000008152600401611d4a90613607565b60405180910390fd5b611d5c81612249565b50565b60007f01ffc9a7000000000000000000000000000000000000000000000000000000007bffffffffffffffffffffffffffffffffffffffffffffffffffffffff1916827bffffffffffffffffffffffffffffffffffffffffffffffffffffffff1916149050919050565b60008073ffffffffffffffffffffffffffffffffffffffff166002600084815260200190815260200160002060009054906101000a900473ffffffffffffffffffffffffffffffffffffffff1673ffffffffffffffffffffffffffffffffffffffff1614159050919050565b600033905090565b816004600083815260200190815260200160002060006101000a81548173ffffffffffffffffffffffffffffffffffffffff021916908373ffffffffffffffffffffffffffffffffffffffff160217905550808273ffffffffffffffffffffffffffffffffffffffff16611eb083611276565b73ffffffffffffffffffffffffffffffffffffffff167f8c5be1e5ebec7d5bd14f71427d1e84f3dd0314c0f7b2291e5b200ac8c7c3b92560405160405180910390a45050565b600081600001549050919050565b6000611f0f82611dc9565b611f4e576040517f08c379a0000000000000000000000000000000000000000000000000000000008152600401611f45906136c7565b60405180910390fd5b6000611f5983611276565b90508073ffffffffffffffffffffffffffffffffffffffff168473ffffffffffffffffffffffffffffffffffffffff161480611fc857508373ffffffffffffffffffffffffffffffffffffffff16611fb0846109bf565b73ffffffffffffffffffffffffffffffffffffffff16145b80611fd95750611fd88185611a9d565b5b91505092915050565b8273ffffffffffffffffffffffffffffffffffffffff1661200282611276565b73ffffffffffffffffffffffffffffffffffffffff1614612058576040517f08c379a000000000000000000000000000000000000000000000000000000000815260040161204f90613627565b60405180910390fd5b600073ffffffffffffffffffffffffffffffffffffffff168273ffffffffffffffffffffffffffffffffffffffff1614156120c8576040517f08c379a00000000000000000000000000000000000000000000000000000000081526004016120bf90613687565b60405180910390fd5b6120d3838383612757565b6120de600082611e3d565b6001600360008573ffffffffffffffffffffffffffffffffffffffff1673ffffffffffffffffffffffffffffffffffffffff168152602001908152602001600020600082825461212e9190613a86565b925050819055506001600360008473ffffffffffffffffffffffffffffffffffffffff1673ffffffffffffffffffffffffffffffffffffffff168152602001908152602001600020600082825461218591906139a5565b92505081905550816002600083815260200190815260200160002060006101000a81548173ffffffffffffffffffffffffffffffffffffffff021916908373ffffffffffffffffffffffffffffffffffffffff160217905550808273ffffffffffffffffffffffffffffffffffffffff168473ffffffffffffffffffffffffffffffffffffffff167fddf252ad1be2c89b69c2b068fc378daa952ba7f163c4a11628f55a4df523b3ef60405160405180910390a461224483838361275c565b505050565b6000600660009054906101000a900473ffffffffffffffffffffffffffffffffffffffff16905081600660006101000a81548173ffffffffffffffffffffffffffffffffffffffff021916908373ffffffffffffffffffffffffffffffffffffffff1602179055508173ffffffffffffffffffffffffffffffffffffffff168173ffffffffffffffffffffffffffffffffffffffff167f8be0079c531659141344cd1fd0a4f28419497f9722a3daafe3b4186f6b6457e060405160405180910390a35050565b60005b8181101561234a576123246007612761565b612337836123326007611ef6565b612777565b808061234290613bd3565b915050612312565b505050565b8173ffffffffffffffffffffffffffffffffffffffff168373ffffffffffffffffffffffffffffffffffffffff1614156123be576040517f08c379a00000000000000000000000000000000000000000000000000000000081526004016123b5906136a7565b60405180910390fd5b80600560008573ffffffffffffffffffffffffffffffffffffffff1673ffffffffffffffffffffffffffffffffffffffff16815260200190815260200160002060008473ffffffffffffffffffffffffffffffffffffffff1673ffffffffffffffffffffffffffffffffffffffff16815260200190815260200160002060006101000a81548160ff0219169083151502179055508173ffffffffffffffffffffffffffffffffffffffff168373ffffffffffffffffffffffffffffffffffffffff167f17307eab39ab6107e8899845ad3d59bd9653f200f220920489ca2b5937696c31836040516124af91906135aa565b60405180910390a3505050565b6124c7848484611fe2565b6124d384848484612795565b612512576040517f08c379a0000000000000000000000000000000000000000000000000000000008152600401612509906135e7565b60405180910390fd5b50505050565b60606008805461252790613b70565b80601f016020809104026020016040519081016040528092919081815260200182805461255390613b70565b80156125a05780601f10612575576101008083540402835291602001916125a0565b820191906000526020600020905b81548152906001019060200180831161258357829003601f168201915b5050505050905090565b606060008214156125f2576040518060400160405280600181526020017f30000000000000000000000000000000000000000000000000000000000000008152509050612752565b600082905060005b6000821461262457808061260d90613bd3565b915050600a8261261d91906139fb565b91506125fa565b60008167ffffffffffffffff811115612666577f4e487b7100000000000000000000000000000000000000000000000000000000600052604160045260246000fd5b6040519080825280601f01601f1916602001820160405280156126985781602001600182028036833780820191505090505b5090505b6000851461274b576001826126b19190613a86565b9150600a856126c09190613c1c565b60306126cc91906139a5565b60f81b818381518110612708577f4e487b7100000000000000000000000000000000000000000000000000000000600052603260045260246000fd5b60200101907effffffffffffffffffffffffffffffffffffffffffffffffffffffffffffff1916908160001a905350600a8561274491906139fb565b945061269c565b8093505050505b919050565b505050565b505050565b6001816000016000828254019250508190555050565b61279182826040518060200160405280600081525061292c565b5050565b60006127b68473ffffffffffffffffffffffffffffffffffffffff16612987565b1561291f578373ffffffffffffffffffffffffffffffffffffffff1663150b7a026127df611e35565b8786866040518563ffffffff1660e01b8152600401612801949392919061353c565b602060405180830381600087803b15801561281b57600080fd5b505af192505050801561284c57506040513d601f19601f820116820180604052508101906128499190612f59565b60015b6128cf573d806000811461287c576040519150601f19603f3d011682016040523d82523d6000602084013e612881565b606091505b506000815114156128c7576040517f08c379a00000000000000000000000000000000000000000000000000000000081526004016128be906135e7565b60405180910390fd5b805181602001fd5b63150b7a0260e01b7bffffffffffffffffffffffffffffffffffffffffffffffffffffffff1916817bffffffffffffffffffffffffffffffffffffffffffffffffffffffff191614915050612924565b600190505b949350505050565b61293683836129aa565b6129436000848484612795565b612982576040517f08c379a0000000000000000000000000000000000000000000000000000000008152600401612979906135e7565b60405180910390fd5b505050565b6000808273ffffffffffffffffffffffffffffffffffffffff163b119050919050565b600073ffffffffffffffffffffffffffffffffffffffff168273ffffffffffffffffffffffffffffffffffffffff161415612a1a576040517f08c379a0000000000000000000000000000000000000000000000000000000008152600401612a1190613747565b60405180910390fd5b612a2381611dc9565b15612a63576040517f08c379a0000000000000000000000000000000000000000000000000000000008152600401612a5a90613647565b60405180910390fd5b612a6f60008383612757565b6001600360008473ffffffffffffffffffffffffffffffffffffffff1673ffffffffffffffffffffffffffffffffffffffff1681526020019081526020016000206000828254612abf91906139a5565b92505081905550816002600083815260200190815260200160002060006101000a81548173ffffffffffffffffffffffffffffffffffffffff021916908373ffffffffffffffffffffffffffffffffffffffff160217905550808273ffffffffffffffffffffffffffffffffffffffff16600073ffffffffffffffffffffffffffffffffffffffff167fddf252ad1be2c89b69c2b068fc378daa952ba7f163c4a11628f55a4df523b3ef60405160405180910390a4612b806000838361275c565b5050565b828054612b9090613b70565b90600052602060002090601f016020900481019282612bb25760008555612bf9565b82601f10612bcb57805160ff1916838001178555612bf9565b82800160010185558215612bf9579182015b82811115612bf8578251825591602001919060010190612bdd565b5b509050612c069190612c0a565b5090565b5b80821115612c23576000816000905550600101612c0b565b5090565b6000612c3a612c35846138a7565b613882565b905082815260208101848484011115612c5257600080fd5b612c5d848285613b2e565b509392505050565b6000612c78612c73846138d8565b613882565b905082815260208101848484011115612c9057600080fd5b612c9b848285613b2e565b509392505050565b600081359050612cb281614219565b92915050565b600081359050612cc781614230565b92915050565b600081359050612cdc81614247565b92915050565b600081519050612cf181614247565b92915050565b600082601f830112612d0857600080fd5b8135612d18848260208601612c27565b91505092915050565b600082601f830112612d3257600080fd5b8135612d42848260208601612c65565b91505092915050565b600081359050612d5a8161425e565b92915050565b600060208284031215612d7257600080fd5b6000612d8084828501612ca3565b91505092915050565b60008060408385031215612d9c57600080fd5b6000612daa85828601612ca3565b9250506020612dbb85828601612ca3565b9150509250929050565b600080600060608486031215612dda57600080fd5b6000612de886828701612ca3565b9350506020612df986828701612ca3565b9250506040612e0a86828701612d4b565b9150509250925092565b60008060008060808587031215612e2a57600080fd5b6000612e3887828801612ca3565b9450506020612e4987828801612ca3565b9350506040612e5a87828801612d4b565b925050606085013567ffffffffffffffff811115612e7757600080fd5b612e8387828801612cf7565b91505092959194509250565b60008060408385031215612ea257600080fd5b6000612eb085828601612ca3565b9250506020612ec185828601612cb8565b9150509250929050565b60008060408385031215612ede57600080fd5b6000612eec85828601612ca3565b9250506020612efd85828601612d4b565b9150509250929050565b600060208284031215612f1957600080fd5b6000612f2784828501612cb8565b91505092915050565b600060208284031215612f4257600080fd5b6000612f5084828501612ccd565b91505092915050565b600060208284031215612f6b57600080fd5b6000612f7984828501612ce2565b91505092915050565b600060208284031215612f9457600080fd5b600082013567ffffffffffffffff811115612fae57600080fd5b612fba84828501612d21565b91505092915050565b600060208284031215612fd557600080fd5b6000612fe384828501612d4b565b91505092915050565b60008060408385031215612fff57600080fd5b600061300d85828601612d4b565b925050602061301e85828601612ca3565b9150509250929050565b600061303483836134bd565b60208301905092915050565b61304981613aba565b82525050565b600061305a8261392e565b613064818561395c565b935061306f83613909565b8060005b838110156130a05781516130878882613028565b97506130928361394f565b925050600181019050613073565b5085935050505092915050565b6130b681613acc565b82525050565b60006130c782613939565b6130d1818561396d565b93506130e1818560208601613b3d565b6130ea81613d09565b840191505092915050565b600061310082613944565b61310a8185613989565b935061311a818560208601613b3d565b61312381613d09565b840191505092915050565b600061313982613944565b613143818561399a565b9350613153818560208601613b3d565b80840191505092915050565b6000815461316c81613b70565b613176818661399a565b9450600182166000811461319157600181146131a2576131d5565b60ff198316865281860193506131d5565b6131ab85613919565b60005b838110156131cd578154818901526001820191506020810190506131ae565b838801955050505b50505092915050565b60006131eb603283613989565b91506131f682613d1a565b604082019050919050565b600061320e602683613989565b915061321982613d69565b604082019050919050565b6000613231602583613989565b915061323c82613db8565b604082019050919050565b6000613254601c83613989565b915061325f82613e07565b602082019050919050565b6000613277601483613989565b915061328282613e30565b602082019050919050565b600061329a602483613989565b91506132a582613e59565b604082019050919050565b60006132bd601983613989565b91506132c882613ea8565b602082019050919050565b60006132e0602c83613989565b91506132eb82613ed1565b604082019050919050565b6000613303603883613989565b915061330e82613f20565b604082019050919050565b6000613326602a83613989565b915061333182613f6f565b604082019050919050565b6000613349602983613989565b915061335482613fbe565b604082019050919050565b600061336c602083613989565b91506133778261400d565b602082019050919050565b600061338f602c83613989565b915061339a82614036565b604082019050919050565b60006133b2602083613989565b91506133bd82614085565b602082019050919050565b60006133d5601783613989565b91506133e0826140ae565b602082019050919050565b60006133f8602f83613989565b9150613403826140d7565b604082019050919050565b600061341b602183613989565b915061342682614126565b604082019050919050565b600061343e60008361397e565b915061344982614175565b600082019050919050565b6000613461601483613989565b915061346c82614178565b602082019050919050565b6000613484603183613989565b915061348f826141a1565b604082019050919050565b60006134a7601383613989565b91506134b2826141f0565b602082019050919050565b6134c681613b24565b82525050565b6134d581613b24565b82525050565b60006134e7828661312e565b91506134f3828561312e565b91506134ff828461315f565b9150819050949350505050565b600061351782613431565b9150819050919050565b60006020820190506135366000830184613040565b92915050565b60006080820190506135516000830187613040565b61355e6020830186613040565b61356b60408301856134cc565b818103606083015261357d81846130bc565b905095945050505050565b600060208201905081810360008301526135a2818461304f565b905092915050565b60006020820190506135bf60008301846130ad565b92915050565b600060208201905081810360008301526135df81846130f5565b905092915050565b60006020820190508181036000830152613600816131de565b9050919050565b6000602082019050818103600083015261362081613201565b9050919050565b6000602082019050818103600083015261364081613224565b9050919050565b6000602082019050818103600083015261366081613247565b9050919050565b600060208201905081810360008301526136808161326a565b9050919050565b600060208201905081810360008301526136a08161328d565b9050919050565b600060208201905081810360008301526136c0816132b0565b9050919050565b600060208201905081810360008301526136e0816132d3565b9050919050565b60006020820190508181036000830152613700816132f6565b9050919050565b6000602082019050818103600083015261372081613319565b9050919050565b600060208201905081810360008301526137408161333c565b9050919050565b600060208201905081810360008301526137608161335f565b9050919050565b6000602082019050818103600083015261378081613382565b9050919050565b600060208201905081810360008301526137a0816133a5565b9050919050565b600060208201905081810360008301526137c0816133c8565b9050919050565b600060208201905081810360008301526137e0816133eb565b9050919050565b600060208201905081810360008301526138008161340e565b9050919050565b6000602082019050818103600083015261382081613454565b9050919050565b6000602082019050818103600083015261384081613477565b9050919050565b600060208201905081810360008301526138608161349a565b9050919050565b600060208201905061387c60008301846134cc565b92915050565b600061388c61389d565b90506138988282613ba2565b919050565b6000604051905090565b600067ffffffffffffffff8211156138c2576138c1613cda565b5b6138cb82613d09565b9050602081019050919050565b600067ffffffffffffffff8211156138f3576138f2613cda565b5b6138fc82613d09565b9050602081019050919050565b6000819050602082019050919050565b60008190508160005260206000209050919050565b600081519050919050565b600081519050919050565b600081519050919050565b6000602082019050919050565b600082825260208201905092915050565b600082825260208201905092915050565b600081905092915050565b600082825260208201905092915050565b600081905092915050565b60006139b082613b24565b91506139bb83613b24565b9250827fffffffffffffffffffffffffffffffffffffffffffffffffffffffffffffffff038211156139f0576139ef613c4d565b5b828201905092915050565b6000613a0682613b24565b9150613a1183613b24565b925082613a2157613a20613c7c565b5b828204905092915050565b6000613a3782613b24565b9150613a4283613b24565b9250817fffffffffffffffffffffffffffffffffffffffffffffffffffffffffffffffff0483118215151615613a7b57613a7a613c4d565b5b828202905092915050565b6000613a9182613b24565b9150613a9c83613b24565b925082821015613aaf57613aae613c4d565b5b828203905092915050565b6000613ac582613b04565b9050919050565b60008115159050919050565b60007fffffffff0000000000000000000000000000000000000000000000000000000082169050919050565b600073ffffffffffffffffffffffffffffffffffffffff82169050919050565b6000819050919050565b82818337600083830152505050565b60005b83811015613b5b578082015181840152602081019050613b40565b83811115613b6a576000848401525b50505050565b60006002820490506001821680613b8857607f821691505b60208210811415613b9c57613b9b613cab565b5b50919050565b613bab82613d09565b810181811067ffffffffffffffff82111715613bca57613bc9613cda565b5b80604052505050565b6000613bde82613b24565b91507fffffffffffffffffffffffffffffffffffffffffffffffffffffffffffffffff821415613c1157613c10613c4d565b5b600182019050919050565b6000613c2782613b24565b9150613c3283613b24565b925082613c4257613c41613c7c565b5b828206905092915050565b7f4e487b7100000000000000000000000000000000000000000000000000000000600052601160045260246000fd5b7f4e487b7100000000000000000000000000000000000000000000000000000000600052601260045260246000fd5b7f4e487b7100000000000000000000000000000000000000000000000000000000600052602260045260246000fd5b7f4e487b7100000000000000000000000000000000000000000000000000000000600052604160045260246000fd5b6000601f19601f8301169050919050565b7f4552433732313a207472616e7366657220746f206e6f6e20455243373231526560008201527f63656976657220696d706c656d656e7465720000000000000000000000000000602082015250565b7f4f776e61626c653a206e6577206f776e657220697320746865207a65726f206160008201527f6464726573730000000000000000000000000000000000000000000000000000602082015250565b7f4552433732313a207472616e736665722066726f6d20696e636f72726563742060008201527f6f776e6572000000000000000000000000000000000000000000000000000000602082015250565b7f4552433732313a20746f6b656e20616c7265616479206d696e74656400000000600082015250565b7f496e76616c6964206d696e7420616d6f756e7421000000000000000000000000600082015250565b7f4552433732313a207472616e7366657220746f20746865207a65726f2061646460008201527f7265737300000000000000000000000000000000000000000000000000000000602082015250565b7f4552433732313a20617070726f766520746f2063616c6c657200000000000000600082015250565b7f4552433732313a206f70657261746f7220717565727920666f72206e6f6e657860008201527f697374656e7420746f6b656e0000000000000000000000000000000000000000602082015250565b7f4552433732313a20617070726f76652063616c6c6572206973206e6f74206f7760008201527f6e6572206e6f7220617070726f76656420666f7220616c6c0000000000000000602082015250565b7f4552433732313a2062616c616e636520717565727920666f7220746865207a6560008201527f726f206164647265737300000000000000000000000000000000000000000000602082015250565b7f4552433732313a206f776e657220717565727920666f72206e6f6e657869737460008201527f656e7420746f6b656e0000000000000000000000000000000000000000000000602082015250565b7f4552433732313a206d696e7420746f20746865207a65726f2061646472657373600082015250565b7f4552433732313a20617070726f76656420717565727920666f72206e6f6e657860008201527f697374656e7420746f6b656e0000000000000000000000000000000000000000602082015250565b7f4f776e61626c653a2063616c6c6572206973206e6f7420746865206f776e6572600082015250565b7f54686520636f6e74726163742069732070617573656421000000000000000000600082015250565b7f4552433732314d657461646174613a2055524920717565727920666f72206e6f60008201527f6e6578697374656e7420746f6b656e0000000000000000000000000000000000602082015250565b7f4552433732313a20617070726f76616c20746f2063757272656e74206f776e6560008201527f7200000000000000000000000000000000000000000000000000000000000000602082015250565b50565b7f4d617820737570706c7920657863656564656421000000000000000000000000600082015250565b7f4552433732313a207472616e736665722063616c6c6572206973206e6f74206f60008201527f776e6572206e6f7220617070726f766564000000000000000000000000000000602082015250565b7f496e73756666696369656e742066756e64732100000000000000000000000000600082015250565b61422281613aba565b811461422d57600080fd5b50565b61423981613acc565b811461424457600080fd5b50565b61425081613ad8565b811461425b57600080fd5b50565b61426781613b24565b811461427257600080fd5b5056fea26469706673582212204abc1621fb4328d78356e742256282ecb2cd80a4546f7a2ba315bc697998081264736f6c63430008040033697066733a2f2f516d5667426237724b38524473576134347052424453647958553437716978385161794c4d466d52567965384670",
  "linkReferences": {},
  "deployedLinkReferences": {}
}